{
  "contractName": "LotteryAda",
  "abi": [
    {
      "inputs": [
        {
          "name": "_oracleAddress",
          "type": "address"
        },
        {
          "name": "_roundDuration",
          "type": "uint256"
        }
      ],
      "payable": true,
      "stateMutability": "payable",
      "type": "constructor"
    },
    {
      "payable": true,
      "stateMutability": "payable",
      "type": "fallback"
    },
    {
      "anonymous": false,
      "inputs": [
        {
          "indexed": false,
          "name": "_description",
          "type": "string"
        }
      ],
      "name": "LotteryClosedEvent",
      "type": "event"
    },
    {
      "anonymous": false,
      "inputs": [
        {
          "indexed": false,
          "name": "_description",
          "type": "string"
        },
        {
          "indexed": true,
          "name": "_roundStart",
          "type": "uint256"
        }
      ],
      "name": "RoundStartEvent",
      "type": "event"
    },
    {
      "anonymous": false,
      "inputs": [
        {
          "indexed": false,
          "name": "_description",
          "type": "string"
        },
        {
          "indexed": true,
          "name": "_roundStart",
          "type": "uint256"
        }
      ],
      "name": "ProvideOracleFeeEvent",
      "type": "event"
    },
    {
      "anonymous": false,
      "inputs": [
        {
          "indexed": false,
          "name": "_description",
          "type": "string"
        },
        {
          "indexed": true,
          "name": "_roundStart",
          "type": "uint256"
        }
      ],
      "name": "DrawingFinishedEvent",
      "type": "event"
    },
    {
      "anonymous": false,
      "inputs": [
        {
          "indexed": false,
          "name": "_description",
          "type": "string"
        },
        {
          "indexed": true,
          "name": "_roundStart",
          "type": "uint256"
        }
      ],
      "name": "UnfinishedBatchProcessingEvent",
      "type": "event"
    },
    {
      "anonymous": false,
      "inputs": [
        {
          "indexed": false,
          "name": "_description",
          "type": "string"
        },
        {
          "indexed": true,
          "name": "_to",
          "type": "address"
        }
      ],
      "name": "WinnerEvent",
      "type": "event"
    },
    {
      "anonymous": false,
      "inputs": [
        {
          "indexed": false,
          "name": "_description",
          "type": "string"
        },
        {
          "indexed": true,
          "name": "_to",
          "type": "address"
        }
      ],
      "name": "RefundEvent",
      "type": "event"
    },
    {
      "anonymous": false,
      "inputs": [
        {
          "indexed": false,
          "name": "_description",
          "type": "string"
        },
        {
          "indexed": true,
          "name": "_roundStart",
          "type": "uint256"
        }
      ],
      "name": "ForcedRoundEndEvent",
      "type": "event"
    },
    {
      "constant": false,
      "inputs": [
        {
          "name": "_newOwner",
          "type": "address"
        }
      ],
      "name": "transferOwnership",
      "outputs": [],
      "payable": false,
      "stateMutability": "nonpayable",
      "type": "function"
    },
    {
      "constant": false,
      "inputs": [
        {
          "name": "_oracleFee",
          "type": "uint256"
        }
      ],
      "name": "adjustOracleFee",
      "outputs": [],
      "payable": false,
      "stateMutability": "nonpayable",
      "type": "function"
    },
    {
      "constant": false,
      "inputs": [],
      "name": "retrieveLeftOvers",
      "outputs": [],
      "payable": false,
      "stateMutability": "nonpayable",
      "type": "function"
    },
    {
      "constant": false,
      "inputs": [],
      "name": "endRound",
      "outputs": [],
      "payable": false,
      "stateMutability": "nonpayable",
      "type": "function"
    },
    {
      "constant": false,
      "inputs": [
        {
          "name": "_chosenNumbers",
          "type": "string"
        }
      ],
      "name": "buyTicket",
      "outputs": [],
      "payable": true,
      "stateMutability": "payable",
      "type": "function"
    },
    {
      "constant": false,
      "inputs": [],
      "name": "drawWinningNumbers",
      "outputs": [],
      "payable": false,
      "stateMutability": "nonpayable",
      "type": "function"
    },
    {
      "constant": false,
      "inputs": [],
      "name": "distributeWinnings",
      "outputs": [],
      "payable": false,
      "stateMutability": "nonpayable",
      "type": "function"
    },
    {
      "constant": false,
      "inputs": [],
      "name": "closeLottery",
      "outputs": [],
      "payable": false,
      "stateMutability": "nonpayable",
      "type": "function"
    },
    {
      "constant": false,
      "inputs": [],
      "name": "distributeRefunds",
      "outputs": [],
      "payable": false,
      "stateMutability": "nonpayable",
      "type": "function"
    },
    {
      "constant": true,
      "inputs": [],
      "name": "isLotteryClosed",
      "outputs": [
        {
          "name": "",
          "type": "bool"
        }
      ],
      "payable": false,
      "stateMutability": "view",
      "type": "function"
    },
    {
      "constant": true,
      "inputs": [],
      "name": "isForcedRoundEnd",
      "outputs": [
        {
          "name": "",
          "type": "bool"
        }
      ],
      "payable": false,
      "stateMutability": "view",
      "type": "function"
    },
    {
      "constant": true,
      "inputs": [],
      "name": "hasDrawingFinished",
      "outputs": [
        {
          "name": "",
          "type": "bool"
        }
      ],
      "payable": false,
      "stateMutability": "view",
      "type": "function"
    },
    {
      "constant": true,
      "inputs": [],
      "name": "isWaitingForWinningNumbers",
      "outputs": [
        {
          "name": "",
          "type": "bool"
        }
      ],
      "payable": false,
      "stateMutability": "view",
      "type": "function"
    },
    {
      "constant": true,
      "inputs": [],
      "name": "isQueryProcessed",
      "outputs": [
        {
          "name": "",
          "type": "bool"
        }
      ],
      "payable": false,
      "stateMutability": "view",
      "type": "function"
    },
    {
      "constant": true,
      "inputs": [],
      "name": "getCurrentParticipants",
      "outputs": [
        {
          "name": "",
          "type": "uint256"
        }
      ],
      "payable": false,
      "stateMutability": "view",
      "type": "function"
    },
    {
      "constant": true,
      "inputs": [],
      "name": "getCurrentRoundStart",
      "outputs": [
        {
          "name": "",
          "type": "uint256"
        }
      ],
      "payable": false,
      "stateMutability": "view",
      "type": "function"
    },
    {
      "constant": true,
      "inputs": [],
      "name": "getCurrentRoundEnd",
      "outputs": [
        {
          "name": "",
          "type": "uint256"
        }
      ],
      "payable": false,
      "stateMutability": "view",
      "type": "function"
    },
    {
      "constant": true,
      "inputs": [],
      "name": "getRoundDuration",
      "outputs": [
        {
          "name": "",
          "type": "uint256"
        }
      ],
      "payable": false,
      "stateMutability": "view",
      "type": "function"
    },
    {
      "constant": true,
      "inputs": [],
      "name": "getTicketPrice",
      "outputs": [
        {
          "name": "",
          "type": "uint256"
        }
      ],
      "payable": false,
      "stateMutability": "view",
      "type": "function"
    },
    {
      "constant": true,
      "inputs": [],
      "name": "getJackpot",
      "outputs": [
        {
          "name": "",
          "type": "uint256"
        }
      ],
      "payable": false,
      "stateMutability": "view",
      "type": "function"
    },
    {
      "constant": true,
      "inputs": [
        {
          "name": "_account",
          "type": "address"
        }
      ],
      "name": "getTicketsForAddress",
      "outputs": [
        {
          "components": [
            {
              "name": "chosenNumbers",
              "type": "string"
            },
            {
              "name": "roundStart",
              "type": "uint256"
            },
            {
              "name": "ticketOwner",
              "type": "address"
            }
          ],
          "name": "",
          "type": "tuple[]"
        }
      ],
      "payable": false,
      "stateMutability": "view",
      "type": "function"
    },
    {
      "constant": true,
      "inputs": [
        {
          "name": "_roundStart",
          "type": "uint256"
        }
      ],
      "name": "getWinningNumbersForRoundStart",
      "outputs": [
        {
          "name": "",
          "type": "string"
        }
      ],
      "payable": false,
      "stateMutability": "view",
      "type": "function"
    }
  ],
  "bytecode": "0x6080604052600a6001556611c37937e080006004556000600655670de0b6b3a764000060075560006008556000600b60006101000a81548160ff0219169083151502179055506000600c556000600d60006101000a81548160ff0219169083151502179055506000600d60016101000a81548160ff0219169083151502179055506000600e556000601260006101000a81548160ff02191690831515021790555060006014556000601555604051604080620032ca8339810180604052620000cb9190810190620001cf565b336000806101000a81548173ffffffffffffffffffffffffffffffffffffffff021916908373ffffffffffffffffffffffffffffffffffffffff16021790555081600260006101000a81548173ffffffffffffffffffffffffffffffffffffffff021916908373ffffffffffffffffffffffffffffffffffffffff16021790555081600360006101000a81548173ffffffffffffffffffffffffffffffffffffffff021916908373ffffffffffffffffffffffffffffffffffffffff16021790555080600a819055504260098190555050506200024e565b6000620001b1825162000230565b905092915050565b6000620001c7825162000244565b905092915050565b60008060408385031215620001e357600080fd5b6000620001f385828601620001a3565b92505060206200020685828601620001b9565b9150509250929050565b600073ffffffffffffffffffffffffffffffffffffffff82169050919050565b60006200023d8262000210565b9050919050565b6000819050919050565b61306c806200025e6000396000f3fe608060405260043610610128576000357c0100000000000000000000000000000000000000000000000000000000900463ffffffff168063102905291461012a5780633df8faf814610155578063404ae8101461018057806359519049146101ab578063608620aa146101d6578063663752f9146101ed5780636fd098161461020457806371bb4b471461021b578063749aa2d91461024657806375eda0ff1461025d5780637d2026cd146102885780638473808f1461029f57806387bb7ae0146102ca5780639329066c146102f5578063a62db02014610320578063b8af21b91461035d578063b9a8efb914610388578063c5991e32146103c5578063dedf815c146103f0578063f2fde38b14610419578063f4668c6c14610442578063fa30b25114610459575b005b34801561013657600080fd5b5061013f610475565b60405161014c9190612bc2565b60405180910390f35b34801561016157600080fd5b5061016a610545565b6040516101779190612bc2565b60405180910390f35b34801561018c57600080fd5b5061019561055c565b6040516101a29190612e9a565b60405180910390f35b3480156101b757600080fd5b506101c0610566565b6040516101cd9190612bc2565b60405180910390f35b3480156101e257600080fd5b506101eb61057d565b005b3480156101f957600080fd5b5061020261093b565b005b34801561021057600080fd5b50610219610a9e565b005b34801561022757600080fd5b50610230610bf8565b60405161023d9190612e9a565b60405180910390f35b34801561025257600080fd5b5061025b610c06565b005b34801561026957600080fd5b50610272610cec565b60405161027f9190612bc2565b60405180910390f35b34801561029457600080fd5b5061029d610d03565b005b3480156102ab57600080fd5b506102b4611145565b6040516102c19190612e9a565b60405180910390f35b3480156102d657600080fd5b506102df61114f565b6040516102ec9190612e9a565b60405180910390f35b34801561030157600080fd5b5061030a611159565b6040516103179190612e9a565b60405180910390f35b34801561032c57600080fd5b5061034760048036036103429190810190612151565b611163565b6040516103549190612bf8565b60405180910390f35b34801561036957600080fd5b50610372611218565b60405161037f9190612bc2565b60405180910390f35b34801561039457600080fd5b506103af60048036036103aa919081019061202b565b61122f565b6040516103bc9190612ba0565b60405180910390f35b3480156103d157600080fd5b506103da6113d0565b6040516103e79190612e9a565b60405180910390f35b3480156103fc57600080fd5b5061041760048036036104129190810190612151565b6113da565b005b34801561042557600080fd5b50610440600480360361043b9190810190612054565b611475565b005b34801561044e57600080fd5b50610457611549565b005b610473600480360361046e91908101906120cf565b611719565b005b6000600260009054906101000a900473ffffffffffffffffffffffffffffffffffffffff1673ffffffffffffffffffffffffffffffffffffffff1663696567f56005546040518263ffffffff167c01000000000000000000000000000000000000000000000000000000000281526004016104f09190612bdd565b60206040518083038186803b15801561050857600080fd5b505afa15801561051c573d6000803e3d6000fd5b505050506040513d601f19601f82011682018060405250610540919081019061207d565b905090565b6000600d60009054906101000a900460ff16905090565b6000600954905090565b6000600b60009054906101000a900460ff16905090565b601260009054906101000a900460ff161515156105cf576040517f08c379a00000000000000000000000000000000000000000000000000000000081526004016105c690612dda565b60405180910390fd5b6105d7611a83565b1515610618576040517f08c379a000000000000000000000000000000000000000000000000000000000815260040161060f90612c5a565b60405180910390fd5b600d60009054906101000a900460ff1615151561066a576040517f08c379a000000000000000000000000000000000000000000000000000000000815260040161066190612d9a565b60405180910390fd5b60006011600060095481526020019081526020016000208054600181600116156101000203166002900490501415156106d8576040517f08c379a00000000000000000000000000000000000000000000000000000000081526004016106cf90612c7a565b60405180910390fd5b6000600c54141561073b576001600d60016101000a81548160ff0219169083151502179055506009547f03c266dd73cbde6385ad4c0035cb508e89effcc5bb5a45e3a63a7af38954c13c60405161072e90612d5a565b60405180910390a2610939565b6004543073ffffffffffffffffffffffffffffffffffffffff16311015156108ff57600360009054906101000a900473ffffffffffffffffffffffffffffffffffffffff1673ffffffffffffffffffffffffffffffffffffffff166108fc6004549081150290604051600060405180830381858888f193505050501580156107c7573d6000803e3d6000fd5b506004546008541015156107ec576004546008600082825403925050819055506107f5565b60006008819055505b600260009054906101000a900473ffffffffffffffffffffffffffffffffffffffff1673ffffffffffffffffffffffffffffffffffffffff1663773a11546040518163ffffffff167c0100000000000000000000000000000000000000000000000000000000028152600401602060405180830381600087803b15801561087b57600080fd5b505af115801561088f573d6000803e3d6000fd5b505050506040513d601f19601f820116820180604052506108b391908101906120a6565b600581905550600060010260055414156108de576006600081548092919060010191905055506108fa565b6001600d60006101000a81548160ff0219169083151502179055505b610938565b6009547f19b8137ead69734b9ba87e54850ca236ef71bec2eb846cd9b71e9e6e24f38f3260405161092f90612cda565b60405180910390a25b5b565b601260009054906101000a900460ff16151561098c576040517f08c379a000000000000000000000000000000000000000000000000000000000815260040161098390612cba565b60405180910390fd5b6000809054906101000a900473ffffffffffffffffffffffffffffffffffffffff1673ffffffffffffffffffffffffffffffffffffffff163373ffffffffffffffffffffffffffffffffffffffff16141515610a1d576040517f08c379a0000000000000000000000000000000000000000000000000000000008152600401610a1490612cfa565b60405180910390fd5b6000809054906101000a900473ffffffffffffffffffffffffffffffffffffffff1673ffffffffffffffffffffffffffffffffffffffff166108fc3073ffffffffffffffffffffffffffffffffffffffff16319081150290604051600060405180830381858888f19350505050158015610a9b573d6000803e3d6000fd5b50565b600d60019054906101000a900460ff16151515610af0576040517f08c379a0000000000000000000000000000000000000000000000000000000008152600401610ae790612dfa565b60405180910390fd5b6003600654101580610b4e57506000809054906101000a900473ffffffffffffffffffffffffffffffffffffffff1673ffffffffffffffffffffffffffffffffffffffff163373ffffffffffffffffffffffffffffffffffffffff16145b1515610b8f576040517f08c379a0000000000000000000000000000000000000000000000000000000008152600401610b8690612e7a565b60405180910390fd5b601260009054906101000a900460ff161515610bf6576001601260006101000a81548160ff0219169083151502179055507f064f1ec840d162c3a0f0d26ef179bfd6d0ae7f56928b4183084f6ac58dc4f916604051610bed90612c3a565b60405180910390a15b565b6000600a5460095401905090565b6000809054906101000a900473ffffffffffffffffffffffffffffffffffffffff1673ffffffffffffffffffffffffffffffffffffffff163373ffffffffffffffffffffffffffffffffffffffff16141515610c97576040517f08c379a0000000000000000000000000000000000000000000000000000000008152600401610c8e90612cfa565b60405180910390fd5b6001600b60006101000a81548160ff0219169083151502179055506009547f53a789872288459b8b098d78616c70bf4284eee8cd91a1099b2200969425f403604051610ce290612d7a565b60405180910390a2565b6000600d60019054906101000a900460ff16905090565b601260009054906101000a900460ff16151515610d55576040517f08c379a0000000000000000000000000000000000000000000000000000000008152600401610d4c90612dda565b60405180910390fd5b610d5d611a83565b1515610d9e576040517f08c379a0000000000000000000000000000000000000000000000000000000008152600401610d9590612c5a565b60405180910390fd5b600d60009054906101000a900460ff1615610dbc57610dbb611aaa565b5b600d60019054906101000a900460ff161515610dd757611143565b6000600c541415610def57610dea611d0e565b611143565b60606011600060095481526020019081526020016000208054600181600116156101000203166002900480601f016020809104026020016040519081016040528092919081815260200182805460018160011615610100020316600290048015610e9a5780601f10610e6f57610100808354040283529160200191610e9a565b820191906000526020600020905b815481529060010190602001808311610e7d57829003601f168201915b505050505090506060601060006009548152602001908152602001600020826040518082805190602001908083835b602083101515610eee5780518252602082019150602081019050602083039250610ec9565b6001836020036101000a0380198251168184511680821785525050505050509050019150509081526020016040518091039020805480602002602001604051908101604052809291908181526020018280548015610fa157602002820191906000526020600020905b8160009054906101000a900473ffffffffffffffffffffffffffffffffffffffff1673ffffffffffffffffffffffffffffffffffffffff1681526020019060010190808311610f57575b50505050509050600081511415610fc157610fba611d0e565b5050611143565b600060018054600e54010390506001825103811115610fe257600182510390505b60008251600854811515610ff257fe5b0490506000600e5490505b82811115156110d5576000848281518110151561101657fe5b9060200190602002015190508073ffffffffffffffffffffffffffffffffffffffff166108fc849081150290604051600060405180830381858888f19350505050158015611068573d6000803e3d6000fd5b50600e600081548092919060010191905055508073ffffffffffffffffffffffffffffffffffffffff167ff3c35f39fc861b45efb63d43a5bff7bf5f54c0b930e8758e3fb7e0d41f5777ff6040516110bf90612c1a565b60405180910390a2508080600101915050610ffd565b508251600e5410151561110557601360006110f09190611d9d565b6000600881905550611100611d0e565b61113e565b6009547f813a4a3b88278fb9644fe8c32e86439ff938254dff9ac66e0f2d486ad5129b3660405161113590612e5a565b60405180910390a25b505050505b565b6000600a54905090565b6000600754905090565b6000600854905090565b6060601160008381526020019081526020016000208054600181600116156101000203166002900480601f01602080910402602001604051908101604052809291908181526020018280546001816001161561010002031660029004801561120c5780601f106111e15761010080835404028352916020019161120c565b820191906000526020600020905b8154815290600101906020018083116111ef57829003601f168201915b50505050509050919050565b6000601260009054906101000a900460ff16905090565b6060600f60008373ffffffffffffffffffffffffffffffffffffffff1673ffffffffffffffffffffffffffffffffffffffff168152602001908152602001600020805480602002602001604051908101604052809291908181526020016000905b828210156113c5578382906000526020600020906003020160606040519081016040529081600082018054600181600116156101000203166002900480601f01602080910402602001604051908101604052809291908181526020018280546001816001161561010002031660029004801561134d5780601f106113225761010080835404028352916020019161134d565b820191906000526020600020905b81548152906001019060200180831161133057829003601f168201915b50505050508152602001600182015481526020016002820160009054906101000a900473ffffffffffffffffffffffffffffffffffffffff1673ffffffffffffffffffffffffffffffffffffffff1673ffffffffffffffffffffffffffffffffffffffff168152505081526020019060010190611290565b505050509050919050565b6000600c54905090565b6000809054906101000a900473ffffffffffffffffffffffffffffffffffffffff1673ffffffffffffffffffffffffffffffffffffffff163373ffffffffffffffffffffffffffffffffffffffff1614151561146b576040517f08c379a000000000000000000000000000000000000000000000000000000000815260040161146290612cfa565b60405180910390fd5b8060048190555050565b6000809054906101000a900473ffffffffffffffffffffffffffffffffffffffff1673ffffffffffffffffffffffffffffffffffffffff163373ffffffffffffffffffffffffffffffffffffffff16141515611506576040517f08c379a00000000000000000000000000000000000000000000000000000000081526004016114fd90612cfa565b60405180910390fd5b806000806101000a81548173ffffffffffffffffffffffffffffffffffffffff021916908373ffffffffffffffffffffffffffffffffffffffff16021790555050565b601260009054906101000a900460ff16151561159a576040517f08c379a000000000000000000000000000000000000000000000000000000000815260040161159190612cba565b60405180910390fd5b600060018054601454010390506001601380549050038111156115c35760016013805490500390505b600060145490505b81811115156116c75760006013828154811015156115e557fe5b9060005260206000200160009054906101000a900473ffffffffffffffffffffffffffffffffffffffff1690508073ffffffffffffffffffffffffffffffffffffffff166108fc6007549081150290604051600060405180830381858888f1935050505015801561165a573d6000803e3d6000fd5b508073ffffffffffffffffffffffffffffffffffffffff167fbf8277636a3ddd2182d0a3620f1f8803a5d87779824f112476b36db8ed17a9b260405161169f90612c9a565b60405180910390a26014600081548092919060010191905055505080806001019150506115cb565b506013805490506014541015156116dd57611716565b6009547f813a4a3b88278fb9644fe8c32e86439ff938254dff9ac66e0f2d486ad5129b3660405161170d90612d3a565b60405180910390a25b50565b601260009054906101000a900460ff1615151561176b576040517f08c379a000000000000000000000000000000000000000000000000000000000815260040161176290612dda565b60405180910390fd5b611773611a83565b1515156117b5576040517f08c379a00000000000000000000000000000000000000000000000000000000081526004016117ac90612dba565b60405180910390fd5b600754341415156117fb576040517f08c379a00000000000000000000000000000000000000000000000000000000081526004016117f290612e1a565b60405180910390fd5b611803611dbe565b60606040519081016040528083815260200160095481526020013373ffffffffffffffffffffffffffffffffffffffff168152509050600f60003373ffffffffffffffffffffffffffffffffffffffff1673ffffffffffffffffffffffffffffffffffffffff168152602001908152602001600020819080600181540180825580915050906001820390600052602060002090600302016000909192909190915060008201518160000190805190602001906118c0929190611df6565b506020820151816001015560408201518160020160006101000a81548173ffffffffffffffffffffffffffffffffffffffff021916908373ffffffffffffffffffffffffffffffffffffffff160217905550505050601060006009548152602001908152602001600020826040518082805190602001908083835b602083101515611960578051825260208201915060208101905060208303925061193b565b6001836020036101000a03801982511681845116808217855250505050505090500191505090815260200160405180910390203390806001815401808255809150509060018203906000526020600020016000909192909190916101000a81548173ffffffffffffffffffffffffffffffffffffffff021916908373ffffffffffffffffffffffffffffffffffffffff16021790555050600c6000815480929190600101919050555060133390806001815401808255809150509060018203906000526020600020016000909192909190916101000a81548173ffffffffffffffffffffffffffffffffffffffff021916908373ffffffffffffffffffffffffffffffffffffffff16021790555050346008600082825401925050819055505050565b6000600a5460095401421180611aa55750600b60009054906101000a900460ff165b905090565b6000600260009054906101000a900473ffffffffffffffffffffffffffffffffffffffff1673ffffffffffffffffffffffffffffffffffffffff1663696567f56005546040518263ffffffff167c0100000000000000000000000000000000000000000000000000000000028152600401611b259190612bdd565b60206040518083038186803b158015611b3d57600080fd5b505afa158015611b51573d6000803e3d6000fd5b505050506040513d601f19601f82011682018060405250611b75919081019061207d565b90508015611d0b576060600260009054906101000a900473ffffffffffffffffffffffffffffffffffffffff1673ffffffffffffffffffffffffffffffffffffffff1663cb923ccd6005546040518263ffffffff167c0100000000000000000000000000000000000000000000000000000000028152600401611bf89190612bdd565b60006040518083038186803b158015611c1057600080fd5b505afa158015611c24573d6000803e3d6000fd5b505050506040513d6000823e3d601f19601f82011682018060405250611c4d9190810190612110565b9050600081511115611cdb57806011600060095481526020019081526020016000209080519060200190611c82929190611e76565b506001600d60016101000a81548160ff0219169083151502179055506009547f03c266dd73cbde6385ad4c0035cb508e89effcc5bb5a45e3a63a7af38954c13c604051611cce90612e3a565b60405180910390a2611cee565b6006600081548092919060010191905055505b6000600d60006101000a81548160ff021916908315150217905550505b50565b6000600b60006101000a81548160ff0219169083151502179055506000600d60016101000a81548160ff02191690831515021790555060006006819055506000600e819055506000600c81905550426009819055506009547f95d0f929bd61de5bd26f34be874fc4c3aca3c6072cae98b35b587e02f542bf7c604051611d9390612d1a565b60405180910390a2565b5080546000825590600052602060002090810190611dbb9190611ef6565b50565b6060604051908101604052806060815260200160008152602001600073ffffffffffffffffffffffffffffffffffffffff1681525090565b828054600181600116156101000203166002900490600052602060002090601f016020900481019282601f10611e3757805160ff1916838001178555611e65565b82800160010185558215611e65579182015b82811115611e64578251825591602001919060010190611e49565b5b509050611e729190611ef6565b5090565b828054600181600116156101000203166002900490600052602060002090601f016020900481019282601f10611eb757805160ff1916838001178555611ee5565b82800160010185558215611ee5579182015b82811115611ee4578251825591602001919060010190611ec9565b5b509050611ef29190611ef6565b5090565b611f1891905b80821115611f14576000816000905550600101611efc565b5090565b90565b6000611f278235612f9b565b905092915050565b6000611f3b8235612fad565b905092915050565b6000611f4f8251612fbf565b905092915050565b6000611f638251612fcb565b905092915050565b600082601f8301121515611f7e57600080fd5b8135611f91611f8c82612ee2565b612eb5565b91508082526020830160208301858383011115611fad57600080fd5b611fb8838284612fdf565b50505092915050565b600082601f8301121515611fd457600080fd5b8151611fe7611fe282612ee2565b612eb5565b9150808252602083016020830185838301111561200357600080fd5b61200e838284612fee565b50505092915050565b60006120238235612fd5565b905092915050565b60006020828403121561203d57600080fd5b600061204b84828501611f1b565b91505092915050565b60006020828403121561206657600080fd5b600061207484828501611f2f565b91505092915050565b60006020828403121561208f57600080fd5b600061209d84828501611f43565b91505092915050565b6000602082840312156120b857600080fd5b60006120c684828501611f57565b91505092915050565b6000602082840312156120e157600080fd5b600082013567ffffffffffffffff8111156120fb57600080fd5b61210784828501611f6b565b91505092915050565b60006020828403121561212257600080fd5b600082015167ffffffffffffffff81111561213c57600080fd5b61214884828501611fc1565b91505092915050565b60006020828403121561216357600080fd5b600061217184828501612017565b91505092915050565b61218381612f49565b82525050565b600061219482612f1b565b808452602084019350836020820285016121ad85612f0e565b60005b848110156121e65783830388526121c8838351612b41565b92506121d382612f3c565b91506020880197506001810190506121b0565b508196508694505050505092915050565b61220081612f5b565b82525050565b61220f81612f67565b82525050565b600061222082612f31565b808452612234816020860160208601612fee565b61223d81613021565b602085010191505092915050565b600061225682612f26565b80845261226a816020860160208601612fee565b61227381613021565b602085010191505092915050565b6000605982527f596f75206861766520776f6e20746865206c6f74746572792e20596f7572207360208301527f68617265206f6620746865206a61636b706f7420686173206265656e2074726160408301527f6e7366657272656420746f20796f7572206163636f756e742e000000000000006060830152608082019050919050565b6000601c82527f546865206c6f747465727920686173206265656e20636c6f7365642e000000006020830152604082019050919050565b6000601982527f526f756e6420686173206e6f7420656e6465642c207965742e000000000000006020830152604082019050919050565b6000605382527f57696e6e696e67206e756d62657220616c726561647920647261776e2e20436160208301527f6c6c20276469737472696275746557696e6e696e677328292720756e74696c2060408301527f61206e657720726f756e64207374617274732e000000000000000000000000006060830152608082019050919050565b6000606282527f546865206c6f74746572792077617320636c6f73656420776974686f7574206160208301527f2077696e6e65722e2041207469636b657420796f7520626f7567687420666f7260408301527f20746865206c61737420726f756e6420686173206265656e20726566756e646560608301527f642e000000000000000000000000000000000000000000000000000000000000608083015260a082019050919050565b6000603482527f526566756e64696e67206973206f6e6c7920706f737369626c6520696620746860208301527f65206c6f747465727920697320636c6f7365642e0000000000000000000000006040830152606082019050919050565b6000606482527f54686520636f6e74726163742062616c616e6365206973206e6f74206c61726760208301527f6520656e6f75676820746f2070617920746865206f7261636c65206665652e2060408301527f5472616e7366657220736f6d6520657468657220746f2074686520636f6e747260608301527f6163742e00000000000000000000000000000000000000000000000000000000608083015260a082019050919050565b6000603082527f46756e6374696f6e2063616e206f6e6c7920626520657865637574656420627960208301527f20636f6e7472616374206f776e65722e000000000000000000000000000000006040830152606082019050919050565b6000602782527f41206e657720726f756e64206f6620746865206c6f747465727920686173207360208301527f7461727465642e000000000000000000000000000000000000000000000000006040830152606082019050919050565b6000608082527f4e6f7420616c6c20726566756e64732068617665206265656e2070726f63657360208301527f7365642c207965742e204b6565702063616c6c696e672074686520276469737460408301527f726962757465526566756e64732829272066756e6374696f6e20756e74696c2060608301527f616c6c20726566756e64732068617665206265656e2070726f6365737365642e608083015260a082019050919050565b6000604482527f4e6f207469636b65742077617320626f7567687420696e207468697320726f7560208301527f6e642c206e6f206e65656420746f20647261772077696e6e696e67206e756d6260408301527f6572732e000000000000000000000000000000000000000000000000000000006060830152608082019050919050565b6000602a82527f43757272656e7420726f756e642077617320656e64656420627920636f6e747260208301527f616374206f776e65722e000000000000000000000000000000000000000000006040830152606082019050919050565b6000603d82527f416c72656164792077616974696e6720666f722077696e6e696e67206e756d6260208301527f657220746f20626520647261776e20627920746865206f7261636c652e0000006040830152606082019050919050565b6000606982527f5468652063757272656e7420726f756e642068617320656e6465642e2043616c60208301527f6c20276472617757696e6e696e674e756d6265727328292720616e642027646960408301527f737472696275746557696e6e696e677328292720746f2073746172742061206e60608301527f657720726f756e642e0000000000000000000000000000000000000000000000608083015260a082019050919050565b6000601682527f546865206c6f747465727920697320636c6f7365642e000000000000000000006020830152604082019050919050565b6000603682527f57696e6e696e67206e756d6265727320666f7220746865206c61737420726f7560208301527f6e6420636f756c64206265207265747269657665642e000000000000000000006040830152606082019050919050565b6000603b82527f5468652076616c7565206f6620746865207472616e73616374696f6e2069732060208301527f65697468657220746f6f2068696768206f7220746f6f206c6f772e00000000006040830152606082019050919050565b6000602082527f57696e6e696e67206e756d626572732068617665206265656e20647261776e2e6020830152604082019050919050565b6000608b82527f4e6f7420616c6c2077696e6e6572732068617665206265656e2070726f63657360208301527f7365642c207965742e204b6565702063616c6c696e672027646973747269627560408301527f746557696e6e696e677328292720756e74696c20616c6c2077696e6e6572206860608301527f617665206265656e2070726f63657373656420746f207374617274207468652060808301527f6e65787420726f756e642e00000000000000000000000000000000000000000060a083015260c082019050919050565b6000603782527f4e6f7420656e6f756768206661696c6564206f7261636c6520617474656d707460208301527f7320746f20636c6f736520746865206c6f74746572792e0000000000000000006040830152606082019050919050565b60006060830160008301518482036000860152612b5e828261224b565b9150506020830151612b736020860182612b91565b506040830151612b86604086018261217a565b508091505092915050565b612b9a81612f91565b82525050565b60006020820190508181036000830152612bba8184612189565b905092915050565b6000602082019050612bd760008301846121f7565b92915050565b6000602082019050612bf26000830184612206565b92915050565b60006020820190508181036000830152612c128184612215565b905092915050565b60006020820190508181036000830152612c3381612281565b9050919050565b60006020820190508181036000830152612c5381612304565b9050919050565b60006020820190508181036000830152612c738161233b565b9050919050565b60006020820190508181036000830152612c9381612372565b9050919050565b60006020820190508181036000830152612cb3816123f5565b9050919050565b60006020820190508181036000830152612cd38161249e565b9050919050565b60006020820190508181036000830152612cf3816124fb565b9050919050565b60006020820190508181036000830152612d13816125a4565b9050919050565b60006020820190508181036000830152612d3381612601565b9050919050565b60006020820190508181036000830152612d538161265e565b9050919050565b60006020820190508181036000830152612d7381612707565b9050919050565b60006020820190508181036000830152612d938161278a565b9050919050565b60006020820190508181036000830152612db3816127e7565b9050919050565b60006020820190508181036000830152612dd381612844565b9050919050565b60006020820190508181036000830152612df3816128ed565b9050919050565b60006020820190508181036000830152612e1381612924565b9050919050565b60006020820190508181036000830152612e3381612981565b9050919050565b60006020820190508181036000830152612e53816129de565b9050919050565b60006020820190508181036000830152612e7381612a15565b9050919050565b60006020820190508181036000830152612e9381612ae4565b9050919050565b6000602082019050612eaf6000830184612b91565b92915050565b6000604051905081810181811067ffffffffffffffff82111715612ed857600080fd5b8060405250919050565b600067ffffffffffffffff821115612ef957600080fd5b601f19601f8301169050602081019050919050565b6000602082019050919050565b600081519050919050565b600081519050919050565b600081519050919050565b6000602082019050919050565b6000612f5482612f71565b9050919050565b60008115159050919050565b6000819050919050565b600073ffffffffffffffffffffffffffffffffffffffff82169050919050565b6000819050919050565b6000612fa682612f71565b9050919050565b6000612fb882612f71565b9050919050565b60008115159050919050565b6000819050919050565b6000819050919050565b82818337600083830152505050565b60005b8381101561300c578082015181840152602081019050612ff1565b8381111561301b576000848401525b50505050565b6000601f19601f830116905091905056fea265627a7a72305820896f3d653a8ed9adbb0d0e2407a8058bd4e7deef343aac51a66599e2a0f5c7e96c6578706572696d656e74616cf50037",
  "source": "pragma solidity >=0.5.0;\r\npragma experimental ABIEncoderV2;\r\n\r\nimport \"./OracleAda.sol\";\r\n\r\ncontract LotteryAda {\r\n\r\n    struct Ticket {\r\n        string chosenNumbers;\r\n        uint roundStart;\r\n        address ticketOwner;\r\n    }\r\n\r\n    event LotteryClosedEvent(string _description);\r\n    event RoundStartEvent(string _description, uint indexed _roundStart);\r\n    event ProvideOracleFeeEvent(string _description, uint indexed _roundStart);\r\n    event DrawingFinishedEvent(string _description, uint indexed _roundStart);\r\n    event UnfinishedBatchProcessingEvent(string _description, uint indexed _roundStart);\r\n    event WinnerEvent(string _description, address payable indexed _to);\r\n    event RefundEvent(string _description, address payable indexed _to);\r\n    event ForcedRoundEndEvent(string _description, uint indexed _roundStart);\r\n\r\n    address payable private owner;\r\n    uint private batchSize = 10;\r\n\r\n    OracleAda private oracle;\r\n    address payable private oracleAddress;\r\n    uint private oracleFee = 5000000000000000 wei;\r\n    bytes32 private lastOracleQueryId;\r\n    uint private failedOracleAttempts = 0;\r\n\r\n    uint private price = 1 ether;\r\n    uint private jackpot = 0;\r\n    uint private roundStart;\r\n    uint private roundDuration;\r\n    bool private forcedRoundEnd = false;\r\n    uint private currentParticipants = 0;\r\n    bool private waitingForWinningNumbers = false;\r\n    bool private drawingFinished = false;\r\n    uint private processedWinners = 0;\r\n    mapping(address => Ticket[]) private ticketsByAddress;\r\n    mapping(uint => mapping(string => address payable[])) private addressByChosenNumbersByRoundStart;\r\n    mapping(uint => string) private winningNumbersByRoundStart;\r\n\r\n    bool private lotteryClosed = false;\r\n    address payable[] private refundableTicketHolders;\r\n    uint private processedRefunds = 0;\r\n    uint private leftOvers = 0;\r\n\r\n    constructor(address payable _oracleAddress, uint _roundDuration) public payable {\r\n        owner = msg.sender;\r\n        oracle = OracleAda(_oracleAddress);\r\n        oracleAddress = _oracleAddress;\r\n\r\n        roundDuration = _roundDuration;\r\n        roundStart = now;\r\n    }\r\n\r\n    function() external payable {\r\n        // Fallback 'payable' function is needed for a contract to  accept ETH payments.\r\n    }\r\n\r\n    modifier onlyOwner() {\r\n        require(msg.sender == owner, \"Function can only be executed by contract owner.\");\r\n        _;\r\n    }\r\n\r\n    function transferOwnership(address payable _newOwner) public onlyOwner {\r\n        owner = _newOwner;\r\n    }\r\n\r\n    function adjustOracleFee(uint _oracleFee) public onlyOwner {\r\n        oracleFee = _oracleFee;\r\n    }\r\n\r\n    function retrieveLeftOvers() public isRefundingAllowed onlyOwner {\r\n        owner.transfer(address(this).balance);\r\n    }\r\n\r\n    function endRound() public onlyOwner {\r\n        forcedRoundEnd = true;\r\n        emit ForcedRoundEndEvent(\"Current round was ended by contract owner.\", roundStart);\r\n    }\r\n\r\n    function buyTicket(string memory _chosenNumbers) public payable isLotteryOpen hasCorrectPrice {\r\n        Ticket memory _ticket = Ticket({chosenNumbers: _chosenNumbers, roundStart: roundStart, ticketOwner: msg.sender});\r\n        ticketsByAddress[msg.sender].push(_ticket);\r\n\r\n        addressByChosenNumbersByRoundStart[roundStart][_chosenNumbers].push(msg.sender);\r\n        currentParticipants++;\r\n        refundableTicketHolders.push(msg.sender);\r\n        jackpot += msg.value;\r\n    }\r\n\r\n    modifier isLotteryOpen() {\r\n        require(!lotteryClosed, \"The lottery is closed.\");\r\n        require(!hasRoundEnded(),\r\n            \"The current round has ended. Call 'drawWinningNumbers()' and 'distributeWinnings()' to start a new round.\");\r\n        _;\r\n    }\r\n\r\n    modifier hasCorrectPrice() {\r\n        require(msg.value == price, \"The value of the transaction is either too high or too low.\");\r\n        _;\r\n    }\r\n\r\n    function drawWinningNumbers() public isDrawWinningNumbersAllowed {\r\n        if (currentParticipants == 0) {\r\n            drawingFinished = true;\r\n            emit DrawingFinishedEvent(\"No ticket was bought in this round, no need to draw winning numbers.\", roundStart);\r\n            return;\r\n        }\r\n\r\n        if (address(this).balance >= oracleFee) {\r\n            oracleAddress.transfer(oracleFee);\r\n            if (jackpot >= oracleFee) {\r\n                jackpot -= oracleFee;\r\n            } else {\r\n                jackpot = 0;\r\n            }\r\n\r\n            lastOracleQueryId = oracle.generateRandomNumber();\r\n            if (lastOracleQueryId == 0x0000000000000000000000000000000000000000000000000000000000000000) {\r\n                failedOracleAttempts++;\r\n            }\r\n            else {\r\n                waitingForWinningNumbers = true;\r\n            }\r\n        } else {\r\n            emit ProvideOracleFeeEvent(\"The contract balance is not large enough to pay the oracle fee. Transfer some ether to the contract.\", roundStart);\r\n        }\r\n    }\r\n\r\n    modifier isDrawWinningNumbersAllowed() {\r\n        require(!lotteryClosed, \"The lottery is closed.\");\r\n        require(hasRoundEnded(), \"Round has not ended, yet.\");\r\n        require(!waitingForWinningNumbers, \"Already waiting for winning number to be drawn by the oracle.\");\r\n        require(bytes(winningNumbersByRoundStart[roundStart]).length == 0, \"Winning number already drawn. Call 'distributeWinnings()' until a new round starts.\");\r\n        _;\r\n    }\r\n\r\n    function hasRoundEnded() private returns (bool) {\r\n        return (now > roundStart + roundDuration) || forcedRoundEnd;\r\n    }\r\n\r\n    function distributeWinnings() isDistributeWinningsAllowed public {\r\n        if (waitingForWinningNumbers) {\r\n            retrieveWinningNumbers();\r\n        }\r\n\r\n        if (!drawingFinished) {\r\n            return;\r\n        }\r\n\r\n        if (currentParticipants == 0) {\r\n            initiateNextRound();\r\n            return;\r\n        }\r\n\r\n        string memory winningNumbers = winningNumbersByRoundStart[roundStart];\r\n        address payable[] memory winners = addressByChosenNumbersByRoundStart[roundStart][winningNumbers];\r\n        if (winners.length == 0) {\r\n            initiateNextRound();\r\n            return;\r\n        }\r\n\r\n        uint endIndex = processedWinners + batchSize - 1;\r\n        if (endIndex > winners.length - 1) {\r\n            endIndex = winners.length - 1;\r\n        }\r\n\r\n        uint jackpotSplit = jackpot / winners.length;\r\n        for (uint i = processedWinners; i <= endIndex; i++) {\r\n            address payable winnerAddress = winners[i];\r\n            winnerAddress.transfer(jackpotSplit);\r\n            processedWinners++;\r\n            emit WinnerEvent(\"You have won the lottery. Your share of the jackpot has been transferred to your account.\", winnerAddress);\r\n        }\r\n\r\n        if (processedWinners >= winners.length) {\r\n            delete refundableTicketHolders;\r\n            jackpot = 0;\r\n            initiateNextRound();\r\n        }\r\n        else {\r\n            emit UnfinishedBatchProcessingEvent(\"Not all winners have been processed, yet. Keep calling 'distributeWinnings()' until all winner have been processed to start the next round.\", roundStart);\r\n        }\r\n    }\r\n\r\n    modifier isDistributeWinningsAllowed() {\r\n        require(!lotteryClosed, \"The lottery is closed.\");\r\n        require(hasRoundEnded(), \"Round has not ended, yet.\");\r\n        _;\r\n    }\r\n\r\n    function retrieveWinningNumbers() private {\r\n        bool processed = oracle.isQueryProcessed(lastOracleQueryId);\r\n        if (processed) {\r\n            string memory randomNumbers = oracle.getRandomNumber(lastOracleQueryId);\r\n            if (bytes(randomNumbers).length > 0) {\r\n                winningNumbersByRoundStart[roundStart] = randomNumbers;\r\n                drawingFinished = true;\r\n                emit DrawingFinishedEvent(\"Winning numbers have been drawn.\", roundStart);\r\n            } else {\r\n              failedOracleAttempts++;\r\n            }\r\n            waitingForWinningNumbers = false;\r\n        }\r\n    }\r\n\r\n    function initiateNextRound() private {\r\n        forcedRoundEnd = false;\r\n        drawingFinished = false;\r\n        failedOracleAttempts = 0;\r\n        processedWinners = 0;\r\n        currentParticipants = 0;\r\n        roundStart = now;\r\n        emit RoundStartEvent(\"A new round of the lottery has started.\", roundStart);\r\n    }\r\n\r\n    function closeLottery() public isClosingAllowed {\r\n        if (!lotteryClosed) {\r\n            lotteryClosed = true;\r\n            emit LotteryClosedEvent(\"The lottery has been closed.\");\r\n        }\r\n    }\r\n\r\n    modifier isClosingAllowed() {\r\n        require(!drawingFinished, \"Winning numbers for the last round could be retrieved.\");\r\n        require(failedOracleAttempts >= 3 || msg.sender == owner, \"Not enough failed oracle attempts to close the lottery.\");\r\n        _;\r\n    }\r\n\r\n    function distributeRefunds() public isRefundingAllowed {\r\n        uint endIndex = processedRefunds + batchSize - 1;\r\n        if (endIndex > refundableTicketHolders.length - 1) {\r\n            endIndex = refundableTicketHolders.length - 1;\r\n        }\r\n\r\n        for (uint i = processedRefunds; i <= endIndex; i++) {\r\n            address payable refundAddress = refundableTicketHolders[i];\r\n            refundAddress.transfer(price);\r\n            emit RefundEvent(\"The lottery was closed without a winner. A ticket you bought for the last round has been refunded.\", refundAddress);\r\n            processedRefunds++;\r\n        }\r\n\r\n        if (processedRefunds >= refundableTicketHolders.length) {\r\n        } else {\r\n            emit UnfinishedBatchProcessingEvent(\"Not all refunds have been processed, yet. Keep calling the 'distributeRefunds()' function until all refunds have been processed.\", roundStart);\r\n        }\r\n    }\r\n\r\n    modifier isRefundingAllowed() {\r\n        require(lotteryClosed, \"Refunding is only possible if the lottery is closed.\");\r\n        _;\r\n    }\r\n\r\n    ////////////////////////////////////////////////////////////////////////////////////////////////////\r\n    // Getters\r\n    ////////////////////////////////////////////////////////////////////////////////////////////////////\r\n\r\n    function isLotteryClosed() public view returns (bool) {\r\n        return lotteryClosed;\r\n    }\r\n\r\n    function isForcedRoundEnd() public view returns (bool) {\r\n        return forcedRoundEnd;\r\n    }\r\n\r\n    function hasDrawingFinished() public view returns (bool) {\r\n        return drawingFinished;\r\n    }\r\n\r\n    function isWaitingForWinningNumbers() public view returns (bool) {\r\n        return waitingForWinningNumbers;\r\n    }\r\n\r\n    function isQueryProcessed() public view returns (bool) {\r\n        return oracle.isQueryProcessed(lastOracleQueryId);\r\n    }\r\n\r\n    function getCurrentParticipants() public view returns (uint) {\r\n        return currentParticipants;\r\n    }\r\n\r\n    function getCurrentRoundStart() public view returns (uint) {\r\n        return roundStart;\r\n    }\r\n\r\n    function getCurrentRoundEnd() public view returns (uint) {\r\n        return roundStart + roundDuration;\r\n    }\r\n\r\n    function getRoundDuration() public view returns (uint) {\r\n        return roundDuration;\r\n    }\r\n\r\n    function getTicketPrice() public view returns (uint) {\r\n        return price;\r\n    }\r\n\r\n    function getJackpot() public view returns (uint) {\r\n        return jackpot;\r\n    }\r\n\r\n    function getTicketsForAddress(address _account) public view returns (Ticket[] memory) {\r\n        return ticketsByAddress[_account];\r\n    }\r\n\r\n    function getWinningNumbersForRoundStart(uint _roundStart) public view returns (string memory) {\r\n        return winningNumbersByRoundStart[_roundStart];\r\n    }\r\n}\r\n",
  "sourcePath": "C:/Users/Sven/WebstormProjects/ethereum-lottery-app/ethereum/contracts/LotteryAda.sol",
  "compiler": {
    "name": "solc",
    "version": "0.5.0+commit.1d4f565a.Emscripten.clang"
  },
  "schemaVersion": "3.0.9",
  "updatedAt": "2019-05-22T17:45:43.070Z",
  "devdoc": {
    "methods": {}
  },
  "userdoc": {
    "methods": {
      "isLotteryClosed()": {
        "notice": "/////////////////////////////////////////////////////////////////////////////////////////////////"
      }
    }
  }
}