{
  "contractName": "OracleAda",
  "abi": [
    {
      "inputs": [
        {
          "name": "_testMode",
          "type": "bool"
        },
        {
          "name": "_privateNetwork",
          "type": "bool"
        }
      ],
      "payable": true,
      "stateMutability": "payable",
      "type": "constructor"
    },
    {
      "payable": true,
      "stateMutability": "payable",
      "type": "fallback"
    },
    {
      "anonymous": false,
      "inputs": [
        {
          "indexed": false,
          "name": "_oracleFee",
          "type": "uint256"
        }
      ],
      "name": "CurrentOracleFeeEvent",
      "type": "event"
    },
    {
      "anonymous": false,
      "inputs": [
        {
          "indexed": false,
          "name": "_description",
          "type": "string"
        }
      ],
      "name": "QuerySentEvent",
      "type": "event"
    },
    {
      "anonymous": false,
      "inputs": [
        {
          "indexed": false,
          "name": "_description",
          "type": "string"
        }
      ],
      "name": "QueryNotSentEvent",
      "type": "event"
    },
    {
      "anonymous": false,
      "inputs": [
        {
          "indexed": false,
          "name": "_description",
          "type": "string"
        }
      ],
      "name": "QueryFinishedEvent",
      "type": "event"
    },
    {
      "constant": false,
      "inputs": [
        {
          "name": "_newOwner",
          "type": "address"
        }
      ],
      "name": "transferOwnership",
      "outputs": [],
      "payable": false,
      "stateMutability": "nonpayable",
      "type": "function"
    },
    {
      "constant": false,
      "inputs": [],
      "name": "retrieveProfit",
      "outputs": [],
      "payable": false,
      "stateMutability": "nonpayable",
      "type": "function"
    },
    {
      "constant": false,
      "inputs": [
        {
          "name": "_activateTestMode",
          "type": "bool"
        }
      ],
      "name": "activateTestMode",
      "outputs": [],
      "payable": false,
      "stateMutability": "nonpayable",
      "type": "function"
    },
    {
      "constant": false,
      "inputs": [],
      "name": "generateRandomNumber",
      "outputs": [
        {
          "name": "",
          "type": "bytes32"
        }
      ],
      "payable": false,
      "stateMutability": "nonpayable",
      "type": "function"
    },
    {
      "constant": false,
      "inputs": [
        {
          "name": "queryId",
          "type": "bytes32"
        },
        {
          "name": "result",
          "type": "string"
        }
      ],
      "name": "__callback",
      "outputs": [],
      "payable": false,
      "stateMutability": "nonpayable",
      "type": "function"
    },
    {
      "constant": false,
      "inputs": [
        {
          "name": "_myid",
          "type": "bytes32"
        },
        {
          "name": "_result",
          "type": "string"
        },
        {
          "name": "_proof",
          "type": "bytes"
        }
      ],
      "name": "__callback",
      "outputs": [],
      "payable": false,
      "stateMutability": "nonpayable",
      "type": "function"
    },
    {
      "constant": true,
      "inputs": [
        {
          "name": "queryId",
          "type": "bytes32"
        }
      ],
      "name": "isQueryProcessed",
      "outputs": [
        {
          "name": "",
          "type": "bool"
        }
      ],
      "payable": false,
      "stateMutability": "view",
      "type": "function"
    },
    {
      "constant": true,
      "inputs": [
        {
          "name": "queryId",
          "type": "bytes32"
        }
      ],
      "name": "getRandomNumber",
      "outputs": [
        {
          "name": "",
          "type": "string"
        }
      ],
      "payable": false,
      "stateMutability": "view",
      "type": "function"
    },
    {
      "constant": true,
      "inputs": [],
      "name": "getBalance",
      "outputs": [
        {
          "name": "",
          "type": "uint256"
        }
      ],
      "payable": false,
      "stateMutability": "view",
      "type": "function"
    }
  ],
  "bytecode": "0x60806040526000600560146101000a81548160ff02191690831515021790555060a060405190810160405280607b81526020017f68747470733a2f2f7777772e72616e646f6d2e6f72672f696e74656765722d7381526020017f6574732f3f736574733d31266e756d3d34266d696e3d31266d61783d3234267381526020017f65716e6f733d6f6e26636f6d6d61733d6f6e26736f72743d6f6e266f7264657281526020017f3d696e64657826666f726d61743d706c61696e26726e643d6e6577000000000081525060069080519060200190620000df929190620001dc565b50604051604080620023cb833981018060405260408110156200010157600080fd5b81019080805190602001909291908051906020019092919050505033600560006101000a81548173ffffffffffffffffffffffffffffffffffffffff021916908373ffffffffffffffffffffffffffffffffffffffff1602179055508015620001ba57736f485c8bf6fc43ea212e93bbf8ce046c7f1cb475600160006101000a81548173ffffffffffffffffffffffffffffffffffffffff021916908373ffffffffffffffffffffffffffffffffffffffff1602179055505b81600560146101000a81548160ff02191690831515021790555050506200028b565b828054600181600116156101000203166002900490600052602060002090601f016020900481019282601f106200021f57805160ff191683800117855562000250565b8280016001018555821562000250579182015b828111156200024f57825182559160200191906001019062000232565b5b5090506200025f919062000263565b5090565b6200028891905b80821115620002845760008160009055506001016200026a565b5090565b90565b612130806200029b6000396000f3fe608060405260043610610099576000357c0100000000000000000000000000000000000000000000000000000000900463ffffffff16806312065fe01461009b578063275093a9146100c657806327dc297e1461010357806338bbfa50146101d557806363274c651461033e578063696567f514610355578063773a1154146103a8578063cb923ccd146103d3578063f2fde38b14610487575b005b3480156100a757600080fd5b506100b06104d8565b6040518082815260200191505060405180910390f35b3480156100d257600080fd5b50610101600480360360208110156100e957600080fd5b810190808035151590602001909291905050506104f7565b005b34801561010f57600080fd5b506101d36004803603604081101561012657600080fd5b81019080803590602001909291908035906020019064010000000081111561014d57600080fd5b82018360208201111561015f57600080fd5b8035906020019184600183028401116401000000008311171561018157600080fd5b91908080601f016020809104026020016040519081016040528093929190818152602001838380828437600081840152601f19601f8201169050808301925050505050505091929192905050506105ff565b005b3480156101e157600080fd5b5061033c600480360360608110156101f857600080fd5b81019080803590602001909291908035906020019064010000000081111561021f57600080fd5b82018360208201111561023157600080fd5b8035906020019184600183028401116401000000008311171561025357600080fd5b91908080601f016020809104026020016040519081016040528093929190818152602001838380828437600081840152601f19601f820116905080830192505050505050509192919290803590602001906401000000008111156102b657600080fd5b8201836020820111156102c857600080fd5b803590602001918460018302840111640100000000831117156102ea57600080fd5b91908080601f016020809104026020016040519081016040528093929190818152602001838380828437600081840152601f19601f820116905080830192505050505050509192919290505050610778565b005b34801561034a57600080fd5b5061035361077d565b005b34801561036157600080fd5b5061038e6004803603602081101561037857600080fd5b81019080803590602001909291905050506108ea565b604051808215151515815260200191505060405180910390f35b3480156103b457600080fd5b506103bd610914565b6040518082815260200191505060405180910390f35b3480156103df57600080fd5b5061040c600480360360208110156103f657600080fd5b8101908080359060200190929190505050610bdb565b6040518080602001828103825283818151815260200191508051906020019080838360005b8381101561044c578082015181840152602081019050610431565b50505050905090810190601f1680156104795780820380516001836020036101000a031916815260200191505b509250505060405180910390f35b34801561049357600080fd5b506104d6600480360360208110156104aa57600080fd5b81019080803573ffffffffffffffffffffffffffffffffffffffff169060200190929190505050610c90565b005b60003073ffffffffffffffffffffffffffffffffffffffff1631905090565b600560009054906101000a900473ffffffffffffffffffffffffffffffffffffffff1673ffffffffffffffffffffffffffffffffffffffff163373ffffffffffffffffffffffffffffffffffffffff161415156105e2576040517f08c379a00000000000000000000000000000000000000000000000000000000081526004018080602001828103825260308152602001807f46756e6374696f6e2063616e206f6e6c7920626520657865637574656420627981526020017f20636f6e7472616374206f776e65722e0000000000000000000000000000000081525060400191505060405180910390fd5b80600560146101000a81548160ff02191690831515021790555050565b610607610dbf565b73ffffffffffffffffffffffffffffffffffffffff163373ffffffffffffffffffffffffffffffffffffffff1614151561064057600080fd5b60016008600084815260200190815260200160002060006101000a81548160ff021916908315150217905550600560149054906101000a900460ff16156106e3576040805190810160405280601181526020017f53657420313a20312c20322c20332c20340000000000000000000000000000008152506007600084815260200190815260200160002090805190602001906106dd92919061205f565b5061070c565b8060076000848152602001908152602001600020908051906020019061070a92919061205f565b505b7fd74c1f6022efc257f5db0335772d9784020351eb11b425067a56661730d332f160405180806020018281038252601e8152602001807f4f7261636c697a6520717565727920776173207375636365737366756c2e000081525060200191505060405180910390a15050565b505050565b600560009054906101000a900473ffffffffffffffffffffffffffffffffffffffff1673ffffffffffffffffffffffffffffffffffffffff163373ffffffffffffffffffffffffffffffffffffffff16141515610868576040517f08c379a00000000000000000000000000000000000000000000000000000000081526004018080602001828103825260308152602001807f46756e6374696f6e2063616e206f6e6c7920626520657865637574656420627981526020017f20636f6e7472616374206f776e65722e0000000000000000000000000000000081525060400191505060405180910390fd5b600560009054906101000a900473ffffffffffffffffffffffffffffffffffffffff1673ffffffffffffffffffffffffffffffffffffffff166108fc3073ffffffffffffffffffffffffffffffffffffffff16319081150290604051600060405180830381858888f193505050501580156108e7573d6000803e3d6000fd5b50565b60006008600083815260200190815260200160002060009054906101000a900460ff169050919050565b6000806109556040805190810160405280600381526020017f55524c0000000000000000000000000000000000000000000000000000000000815250611132565b90507f95f5854a8e88547088dd0d58d7cbb914bad03b8a145756f335fc1f844d58fab4816040518082815260200191505060405180910390a160003073ffffffffffffffffffffffffffffffffffffffff163182111515610b1e57610a896040805190810160405280600381526020017f55524c000000000000000000000000000000000000000000000000000000000081525060068054600181600116156101000203166002900480601f016020809104026020016040519081016040528092919081815260200182805460018160011615610100020316600290048015610a7f5780601f10610a5457610100808354040283529160200191610a7f565b820191906000526020600020905b815481529060010190602001808311610a6257829003601f168201915b5050505050611519565b90507f9b5fefe392e2a134fc84fac469e00305baa36bad3aba46e50cb3de59b3a51be36040518080602001828103825260328152602001807f4f7261636c697a65207175657279207761732073656e742c2077616974696e6781526020017f20666f722074686520616e737765722e2e2e000000000000000000000000000081525060400191505060405180910390a1610bd3565b7fefbcf0481515818f939eaf1ec2688469fe15866b2430d5c0579dda38ca69a23260405180806020018281038252604c8152602001807f4f7261636c697a6520717565727920776173206e6f742073656e742c20706c6581526020017f6173652061646420736f6d652045544820746f20636f76657220666f7220746881526020017f65207175657279206665652e000000000000000000000000000000000000000081525060600191505060405180910390a15b809250505090565b6060600760008381526020019081526020016000208054600181600116156101000203166002900480601f016020809104026020016040519081016040528092919081815260200182805460018160011615610100020316600290048015610c845780601f10610c5957610100808354040283529160200191610c84565b820191906000526020600020905b815481529060010190602001808311610c6757829003601f168201915b50505050509050919050565b600560009054906101000a900473ffffffffffffffffffffffffffffffffffffffff1673ffffffffffffffffffffffffffffffffffffffff163373ffffffffffffffffffffffffffffffffffffffff16141515610d7b576040517f08c379a00000000000000000000000000000000000000000000000000000000081526004018080602001828103825260308152602001807f46756e6374696f6e2063616e206f6e6c7920626520657865637574656420627981526020017f20636f6e7472616374206f776e65722e0000000000000000000000000000000081525060400191505060405180910390fd5b80600560006101000a81548173ffffffffffffffffffffffffffffffffffffffff021916908373ffffffffffffffffffffffffffffffffffffffff16021790555050565b60008073ffffffffffffffffffffffffffffffffffffffff16600160009054906101000a900473ffffffffffffffffffffffffffffffffffffffff1673ffffffffffffffffffffffffffffffffffffffff161480610e4757506000610e45600160009054906101000a900473ffffffffffffffffffffffffffffffffffffffff16611ad2565b145b15610e5857610e566000611add565b505b600160009054906101000a900473ffffffffffffffffffffffffffffffffffffffff1673ffffffffffffffffffffffffffffffffffffffff166338cc48316040518163ffffffff167c0100000000000000000000000000000000000000000000000000000000028152600401602060405180830381600087803b158015610ede57600080fd5b505af1158015610ef2573d6000803e3d6000fd5b505050506040513d6020811015610f0857600080fd5b810190808051906020019092919050505073ffffffffffffffffffffffffffffffffffffffff166000809054906101000a900473ffffffffffffffffffffffffffffffffffffffff1673ffffffffffffffffffffffffffffffffffffffff1614151561106f57600160009054906101000a900473ffffffffffffffffffffffffffffffffffffffff1673ffffffffffffffffffffffffffffffffffffffff166338cc48316040518163ffffffff167c0100000000000000000000000000000000000000000000000000000000028152600401602060405180830381600087803b158015610ff457600080fd5b505af1158015611008573d6000803e3d6000fd5b505050506040513d602081101561101e57600080fd5b81019080805190602001909291905050506000806101000a81548173ffffffffffffffffffffffffffffffffffffffff021916908373ffffffffffffffffffffffffffffffffffffffff1602179055505b6000809054906101000a900473ffffffffffffffffffffffffffffffffffffffff1673ffffffffffffffffffffffffffffffffffffffff1663c281d19e6040518163ffffffff167c010000000000000000000000000000000000000000000000000000000002815260040160206040518083038186803b1580156110f257600080fd5b505afa158015611106573d6000803e3d6000fd5b505050506040513d602081101561111c57600080fd5b8101908080519060200190929190505050905090565b60008073ffffffffffffffffffffffffffffffffffffffff16600160009054906101000a900473ffffffffffffffffffffffffffffffffffffffff1673ffffffffffffffffffffffffffffffffffffffff1614806111ba575060006111b8600160009054906101000a900473ffffffffffffffffffffffffffffffffffffffff16611ad2565b145b156111cb576111c96000611add565b505b600160009054906101000a900473ffffffffffffffffffffffffffffffffffffffff1673ffffffffffffffffffffffffffffffffffffffff166338cc48316040518163ffffffff167c0100000000000000000000000000000000000000000000000000000000028152600401602060405180830381600087803b15801561125157600080fd5b505af1158015611265573d6000803e3d6000fd5b505050506040513d602081101561127b57600080fd5b810190808051906020019092919050505073ffffffffffffffffffffffffffffffffffffffff166000809054906101000a900473ffffffffffffffffffffffffffffffffffffffff1673ffffffffffffffffffffffffffffffffffffffff161415156113e257600160009054906101000a900473ffffffffffffffffffffffffffffffffffffffff1673ffffffffffffffffffffffffffffffffffffffff166338cc48316040518163ffffffff167c0100000000000000000000000000000000000000000000000000000000028152600401602060405180830381600087803b15801561136757600080fd5b505af115801561137b573d6000803e3d6000fd5b505050506040513d602081101561139157600080fd5b81019080805190602001909291905050506000806101000a81548173ffffffffffffffffffffffffffffffffffffffff021916908373ffffffffffffffffffffffffffffffffffffffff1602179055505b6000809054906101000a900473ffffffffffffffffffffffffffffffffffffffff1673ffffffffffffffffffffffffffffffffffffffff1663524f3889836040518263ffffffff167c01000000000000000000000000000000000000000000000000000000000281526004018080602001828103825283818151815260200191508051906020019080838360005b8381101561148b578082015181840152602081019050611470565b50505050905090810190601f1680156114b85780820380516001836020036101000a031916815260200191505b5092505050602060405180830381600087803b1580156114d757600080fd5b505af11580156114eb573d6000803e3d6000fd5b505050506040513d602081101561150157600080fd5b81019080805190602001909291905050509050919050565b60008073ffffffffffffffffffffffffffffffffffffffff16600160009054906101000a900473ffffffffffffffffffffffffffffffffffffffff1673ffffffffffffffffffffffffffffffffffffffff1614806115a15750600061159f600160009054906101000a900473ffffffffffffffffffffffffffffffffffffffff16611ad2565b145b156115b2576115b06000611add565b505b600160009054906101000a900473ffffffffffffffffffffffffffffffffffffffff1673ffffffffffffffffffffffffffffffffffffffff166338cc48316040518163ffffffff167c0100000000000000000000000000000000000000000000000000000000028152600401602060405180830381600087803b15801561163857600080fd5b505af115801561164c573d6000803e3d6000fd5b505050506040513d602081101561166257600080fd5b810190808051906020019092919050505073ffffffffffffffffffffffffffffffffffffffff166000809054906101000a900473ffffffffffffffffffffffffffffffffffffffff1673ffffffffffffffffffffffffffffffffffffffff161415156117c957600160009054906101000a900473ffffffffffffffffffffffffffffffffffffffff1673ffffffffffffffffffffffffffffffffffffffff166338cc48316040518163ffffffff167c0100000000000000000000000000000000000000000000000000000000028152600401602060405180830381600087803b15801561174e57600080fd5b505af1158015611762573d6000803e3d6000fd5b505050506040513d602081101561177857600080fd5b81019080805190602001909291905050506000806101000a81548173ffffffffffffffffffffffffffffffffffffffff021916908373ffffffffffffffffffffffffffffffffffffffff1602179055505b60008060009054906101000a900473ffffffffffffffffffffffffffffffffffffffff1673ffffffffffffffffffffffffffffffffffffffff1663524f3889856040518263ffffffff167c01000000000000000000000000000000000000000000000000000000000281526004018080602001828103825283818151815260200191508051906020019080838360005b83811015611874578082015181840152602081019050611859565b50505050905090810190601f1680156118a15780820380516001836020036101000a031916815260200191505b5092505050602060405180830381600087803b1580156118c057600080fd5b505af11580156118d4573d6000803e3d6000fd5b505050506040513d60208110156118ea57600080fd5b8101908080519060200190929190505050905062030d403a02670de0b6b3a764000001811115611921576000600102915050611acc565b6000809054906101000a900473ffffffffffffffffffffffffffffffffffffffff1673ffffffffffffffffffffffffffffffffffffffff1663adf59f9982600087876040518563ffffffff167c0100000000000000000000000000000000000000000000000000000000028152600401808481526020018060200180602001838103835285818151815260200191508051906020019080838360005b838110156119d85780820151818401526020810190506119bd565b50505050905090810190601f168015611a055780820380516001836020036101000a031916815260200191505b50838103825284818151815260200191508051906020019080838360005b83811015611a3e578082015181840152602081019050611a23565b50505050905090810190601f168015611a6b5780820380516001836020036101000a031916815260200191505b50955050505050506020604051808303818588803b158015611a8c57600080fd5b505af1158015611aa0573d6000803e3d6000fd5b50505050506040513d6020811015611ab757600080fd5b81019080805190602001909291905050509150505b92915050565b6000813b9050919050565b6000611ae7611aee565b9050919050565b600080611b0e731d3b2638a7cc9f2cb3d298a3da7a90b67e5506ed611ad2565b1115611bb057731d3b2638a7cc9f2cb3d298a3da7a90b67e5506ed600160006101000a81548173ffffffffffffffffffffffffffffffffffffffff021916908373ffffffffffffffffffffffffffffffffffffffff160217905550611ba76040805190810160405280600b81526020017f6574685f6d61696e6e6574000000000000000000000000000000000000000000815250612045565b60019050612042565b6000611bcf73c03a2615d5efaf5f49f60b7bb6583eaec212fdf1611ad2565b1115611c715773c03a2615d5efaf5f49f60b7bb6583eaec212fdf1600160006101000a81548173ffffffffffffffffffffffffffffffffffffffff021916908373ffffffffffffffffffffffffffffffffffffffff160217905550611c686040805190810160405280600c81526020017f6574685f726f707374656e330000000000000000000000000000000000000000815250612045565b60019050612042565b6000611c9073b7a07bcf2ba2f2703b24c0691b5278999c59ac7e611ad2565b1115611d325773b7a07bcf2ba2f2703b24c0691b5278999c59ac7e600160006101000a81548173ffffffffffffffffffffffffffffffffffffffff021916908373ffffffffffffffffffffffffffffffffffffffff160217905550611d296040805190810160405280600981526020017f6574685f6b6f76616e0000000000000000000000000000000000000000000000815250612045565b60019050612042565b6000611d5173146500cfd35b22e4a392fe0adc06de1a1368ed48611ad2565b1115611df35773146500cfd35b22e4a392fe0adc06de1a1368ed48600160006101000a81548173ffffffffffffffffffffffffffffffffffffffff021916908373ffffffffffffffffffffffffffffffffffffffff160217905550611dea6040805190810160405280600b81526020017f6574685f72696e6b656279000000000000000000000000000000000000000000815250612045565b60019050612042565b6000611e1273a2998efd205fb9d4b4963afb70778d6354ad3a41611ad2565b1115611eb45773a2998efd205fb9d4b4963afb70778d6354ad3a41600160006101000a81548173ffffffffffffffffffffffffffffffffffffffff021916908373ffffffffffffffffffffffffffffffffffffffff160217905550611eab6040805190810160405280600a81526020017f6574685f676f65726c6900000000000000000000000000000000000000000000815250612045565b60019050612042565b6000611ed3736f485c8bf6fc43ea212e93bbf8ce046c7f1cb475611ad2565b1115611f3757736f485c8bf6fc43ea212e93bbf8ce046c7f1cb475600160006101000a81548173ffffffffffffffffffffffffffffffffffffffff021916908373ffffffffffffffffffffffffffffffffffffffff16021790555060019050612042565b6000611f567320e12a1f859b3feae5fb2a0a32c18f5a65555bbf611ad2565b1115611fba577320e12a1f859b3feae5fb2a0a32c18f5a65555bbf600160006101000a81548173ffffffffffffffffffffffffffffffffffffffff021916908373ffffffffffffffffffffffffffffffffffffffff16021790555060019050612042565b6000611fd97351efaf4c8b3c9afbd5ab9f4bbc82784ab6ef8faa611ad2565b111561203d577351efaf4c8b3c9afbd5ab9f4bbc82784ab6ef8faa600160006101000a81548173ffffffffffffffffffffffffffffffffffffffff021916908373ffffffffffffffffffffffffffffffffffffffff16021790555060019050612042565b600090505b90565b806002908051906020019061205b92919061205f565b5050565b828054600181600116156101000203166002900490600052602060002090601f016020900481019282601f106120a057805160ff19168380011785556120ce565b828001600101855582156120ce579182015b828111156120cd5782518255916020019190600101906120b2565b5b5090506120db91906120df565b5090565b61210191905b808211156120fd5760008160009055506001016120e5565b5090565b9056fea165627a7a7230582031305273a5b8a4242ace0726b1271ed6a40fc1dca11fd8ee0baeb34339c787d50029",
  "source": "pragma solidity >=0.5.0;\r\n\r\nimport \"./oraclizeAPI.sol\";\r\n\r\ncontract OracleAda is usingOraclize {\r\n\r\n    event CurrentOracleFeeEvent(uint _oracleFee);\r\n    event QuerySentEvent(string _description);\r\n    event QueryNotSentEvent(string _description);\r\n    event QueryFinishedEvent(string _description);\r\n\r\n    address payable private owner;\r\n\r\n    bool private testMode = false;\r\n    string private randomQuery = \"https://www.random.org/integer-sets/?sets=1&num=4&min=1&max=24&seqnos=on&commas=on&sort=on&order=index&format=plain&rnd=new\";\r\n    mapping(bytes32 => string) private generatedNumbers;\r\n    mapping(bytes32 => bool) private isQueryProcessedByQueryId;\r\n\r\n    constructor(bool _testMode, bool _privateNetwork) public payable {\r\n        owner = msg.sender;\r\n        if (_privateNetwork) {\r\n            OAR = OraclizeAddrResolverI(0x6f485C8BF6fc43eA212E93BBF8ce046C7f1cb475);\r\n        }\r\n        testMode = _testMode;\r\n    }\r\n\r\n    function() external payable {\r\n        // Fallback 'payable' function is needed for a contract to accept ETH payments.\r\n    }\r\n\r\n    modifier onlyOwner() {\r\n        require(msg.sender == owner, \"Function can only be executed by contract owner.\");\r\n        _;\r\n    }\r\n\r\n    function transferOwnership(address payable _newOwner) public onlyOwner {\r\n        owner = _newOwner;\r\n    }\r\n\r\n    function retrieveProfit() public onlyOwner {\r\n        owner.transfer(address(this).balance);\r\n    }\r\n\r\n    function activateTestMode(bool _activateTestMode) public onlyOwner {\r\n        testMode = _activateTestMode;\r\n    }\r\n\r\n    function generateRandomNumber() public returns (bytes32) {\r\n        uint oracleFee = oraclize_getPrice(\"URL\");\r\n        emit CurrentOracleFeeEvent(oracleFee);\r\n\r\n        bytes32 queryId;\r\n        if (oracleFee <= address(this).balance) {\r\n            queryId = oraclize_query(\"URL\", randomQuery);\r\n            emit QuerySentEvent(\"Oraclize query was sent, waiting for the answer...\");\r\n        } else {\r\n            emit QueryNotSentEvent(\"Oraclize query was not sent, please add some ETH to cover for the query fee.\");\r\n        }\r\n\r\n        return queryId;\r\n    }\r\n\r\n    function __callback(bytes32 queryId, string memory result) public {\r\n        require(msg.sender == oraclize_cbAddress());\r\n\r\n        isQueryProcessedByQueryId[queryId] = true;\r\n        if (testMode) {\r\n            generatedNumbers[queryId] = \"Set 1: 1, 2, 3, 4\";\r\n        } else {\r\n            generatedNumbers[queryId] = result;\r\n        }\r\n        emit QueryFinishedEvent('Oraclize query was successful.');\r\n    }\r\n\r\n    ////////////////////////////////////////////////////////////////////////////////////////////////////\r\n    // Getters\r\n    ////////////////////////////////////////////////////////////////////////////////////////////////////\r\n\r\n    function isQueryProcessed(bytes32 queryId) public view returns (bool) {\r\n        return isQueryProcessedByQueryId[queryId];\r\n    }\r\n\r\n    function getRandomNumber(bytes32 queryId) public view returns(string memory) {\r\n        return generatedNumbers[queryId];\r\n    }\r\n\r\n    function getBalance() public view returns (uint) {\r\n        return address(this).balance;\r\n    }\r\n}\r\n",
  "sourcePath": "C:\\Users\\Sven\\WebstormProjects\\ethereum-lottery-app\\ethereum\\contracts\\OracleAda.sol",
  "compiler": {
    "name": "solc",
    "version": "0.5.0+commit.1d4f565a.Emscripten.clang"
  },
  "schemaVersion": "3.0.9",
  "updatedAt": "2019-05-22T17:45:43.022Z",
  "devdoc": {
    "methods": {}
  },
  "userdoc": {
    "methods": {
      "isQueryProcessed(bytes32)": {
        "notice": "/////////////////////////////////////////////////////////////////////////////////////////////////"
      }
    }
  }
}